S00E00006C69626164632E73726563B7
S113000051C000005FC000005DC000005BC0000084
S113001059C0000057C0000055C0000053C0000084
S113002051C000004FC000004DC000004BC0000094
S113003049C0000047C0000045C0000043C00000A4
S113004041C000003FC000003DC000003BC00000B4
S113005039C0000037C0000035C0000033C00000C4
S113006031C00000B8C000002DC000002BC000004B
S113007029C0000027C0000025C0000023C00000E4
S113008021C000001FC000001DC000001BC00000F4
S113009019C0000066016E017001720174017601DD
S11300A078017A0111241FBECFEFD0E1DEBFCDBFAE
S11300B021E0A0E0B1E001C01D92AB31B207E1F74D
S11300C0EAD02BC19DCF90E0A0E0B1E080FF14C046
S11300D012962C91129731E0320F12963C9312979C
S11300E030E02F5F3F4FF901EE0FFF1F2E0F3F1F30
S11300F0F901E050FF4F908386959F5F983031F768
S113010080937E008091000190E00196FC01EE0F47
S1130110FF1F8E0F9F1FFC01E050FF4F80818F70E7
S1130120806480937C00EAE7F0E08FE8808384E0D9
S113013080937B0080818062808308950F931F9356
S1130140CF93DF938C01EB0180910101482F50E0A4
S11301509A012F5F3F4FF901EE0FFF1F2E0F3F1F34
S1130160F901E050FF4F908199237CF5FA01319613
S11301709F01220F331FE20FF31FE050FF4FBA011C
S1130180660F771F640F751F6C5F7E4F90819F70A1
S113019090839081D8019C93DB012D913C9139830C
S11301A028839081992394F32091020130E0215017
S11301B03109421753072CF48F5F8093010181E0CA
S11301C005C01092010181E001C080E0DF91CF9170
S11301D01F910F9108951F920F920FB60F92112441
S11301E00BB60F922F933F934F938F939F93AF939D
S11301F0BF93EF93FF93A0E0B1E04C91242F30E044
S1130200F9013196CF01880F991FE80FF91FE050CB
S1130210FF4F80818068808380917800909179007D
S1130220F901EE0FFF1FE20FF31FE050FF4F95831C
S1130230848312968C9190E001972817390724F44F
S11302404F5F4093000102C010920001ACE7B0E0A0
S11302502C918091000190E00196FC01EE0FFF1FAC
S11302608E0F9F1FFC01E050FF4F8081922F907FE3
S11302708F70892B8C93FF91EF91BF91AF919F91D8
S11302808F914F913F912F910F900BBE0F900FBE06
S11302900F901F901895CF93DF9300D01F92CDB786
S11302A0DEB78FEF87B918B885E084BD81E080930D
S11302B06E0009DF78941FC0EB818E2F90E08830A8
S11302C09105C8F4FC01E65BFF4F1EC089819A8149
S11302D0969587959695879588B90DC018B80BC0E3
S11302E018B809C018B807C018B805C018B803C0B2
S11302F018B801C018B8BE016F5F7F4FCE010396D6
S11303001DDF8111D9CFF7CFEE0FFF1F0024001C92
S11103100BBE0790F691E02D0994F894FFCFF0
S9030000FC
